:020000040800F2
:10000000600C0020452F0008B12F0008B12F000818
:10001000B12F0008B12F0008B12F00080000000028
:10002000000000000000000000000000B12F0008E8
:10003000B12F000800000000B12F0008E1330008D4
:10004000B12F0008B12F0008B12F0008B12F000810
:10005000B12F0008B12F0008B12F0008B12F000800
:10006000B12F0008B12F0008B12F0008B12F0008F0
:10007000B12F0008B12F0008B12F0008B12F0008E0
:10008000B12F0008B12F0008B12F0008B12F0008D0
:10009000B12F0008B12F0008B12F0008B12F0008C0
:1000A000B12F0008B12F0008B12F0008B12F0008B0
:1000B000B12F0008B12F0008B12F0008B12F0008A0
:1000C000B12F0008B12F0008B12F0008B12F000890
:1000D000B12F0008B12F0008B12F0008B12F000880
:1000E000B12F0008B12F0008B12F0008B12F000870
:1000F000B12F0008B12F0008B12F0008B12F000860
:10010000B12F0008B12F0008B12F0008B12F00084F
:10011000B12F0008B12F0008B12F0008B12F00083F
:10012000B12F0008B12F0008B12F0008B12F00082F
:10013000B12F0008B12F0008B12F0008B12F00081F
:10014000B12F0008B12F0008B12F0008B12F00080F
:10015000B12F0008B12F0008B12F0008B12F0008FF
:10016000B12F0008B12F0008B12F0008B12F0008EF
:10017000B12F0008B12F0008B12F0008B12F0008DF
:10018000B12F0008B12F000880B49BB000AF786099
:1001900039607B685B687B663B685B687B627B6819
:1001A0001B883B627B685B88FB614FF00003BB648C
:1001B0000023FB637B681A887B685B889A420BD1BB
:1001C0003B681A883B685B889A4205D17B681A882D
:1001D0003B681B889A4203D0FD2387F82B3092E1BD
:1001E0007B6AFB653B6A3B6429E03A6A3B6CD31A45
:1001F000BB6308E0FB6D1A1DFA654FF000021A6040
:10020000BB6B013BBB63BB6B002BF3D1FB6D1A1DBA
:10021000FA654FF07E521A603B6C013BBB6308E00D
:10022000FB6D1A1DFA654FF000021A60BB6B013BB3
:10023000BB63BB6B002BF3D13B6C013B3B643B6C62
:10024000002BD2D1FB697B630023FB6247E1FB6A91
:10025000FA6902FB03F39B007A6E13443B66FB6A68
:10026000FA6902FB03F39B007A6A1344BB653B6E99
:100270001B68BB6401233B633B6ED3ED007AF5EE54
:10028000407AF1EE10FA59D13A6AFB6AD31A013B6F
:100290007B6450E0FB69FA6A02FB03F39B003A6E51
:1002A0001344FB65FB693A6B02FB03F39B00BA6DD9
:1002B00013447B65FB6DD3ED007AF5EE407AF1EEE9
:1002C00010FA32D0FA69FB6AD31ABB6310E0FB6DF7
:1002D0001B68BB61FB6D1A1DFA653A6E12681A60E5
:1002E0003B6E1A1D3A66BA691A60BB6B013BBB6371
:1002F000BB6B002BEBD1FB69BB6310E07B6D1B6814
:10030000BB617B6D1A1D7A65BA6D12681A60BB6D90
:100310001A1DBA65BA691A60BB6B013BBB63BB6B44
:10032000002BEBD10123FB6308E03B6B01333B6304
:100330007B6C013B7B647B6C002BABD1FB6B012B9B
:100340000AD0D7ED127AF5EE407AF1EE10FA03D129
:10035000FB2387F82B30C6E0FB6AFA6902FB03F344
:100360009B007A6E13447B61FB6AFA6902FB03F31C
:100370009B007A6A13443B617B693B663B69FB6582
:10038000FB6AFA6902FB03F39B007A6E13441B6855
:10039000BB64FA69FB6AD31ABB6310E03B6E1B684F
:1003A000FB603B6E1A1D3A66D7ED036A97ED127A31
:1003B000C6EE877AC3ED007ABB6B013BBB63BB6BB8
:1003C000002BEBD1FB69BB6310E0FB6D1B68FB608E
:1003D000FB6D1A1DFA65D7ED036A97ED127AC6EE2A
:1003E000877AC3ED007ABB6B013BBB63BB6B002B11
:1003F000EBD17B6E3B667B6AFB6500237B643B6ACB
:100400003B6360E07A6CFB6A9A420CD1FA69FB6A42
:10041000D31A9B003A6E13443B66FB699B00FA6D4E
:100420001344FB6544E03B6E1B68BB647B693B6522
:100430003B69FB64FA69FB6AD31ABB6317E03B6E46
:100440001B68FB603B6E1A1D3A663A6D111D3965DB
:1004500092ED007AD7ED127A67EE277A97ED037A5C
:1004600077EE677AC3ED007ABB6B013BBB63BB6B76
:10047000002BE4D1FB69BB6317E0FB6D1B68FB60DD
:10048000FB6D1A1DFA65FA6C111DF96492ED007A84
:10049000D7ED127A67EE277A97ED037A77EE677ACF
:1004A000C3ED007ABB6B013BBB63BB6B002BE4D19C
:1004B000FB6A9B003A6E13443B663B6B013B3B631C
:1004C0007B6C01337B643B6B002B9BD17B6E0433D5
:1004D0007B667B6B013B7B63FB6A0133FB627B6B5F
:1004E000002B7FF4B4AE002387F82B30FB6B012B7D
:1004F00009D0D7ED127AF5EE407AF1EE10FA02D17A
:10050000FB2387F82B3097F92B3018466C37BD4604
:100510005DF8047B704700BF80B48BB000AFF8601B
:10052000B9607A60FB685B687B62BB685B683B6252
:100530007B685B68FB61FB681B881A46FB685B880D
:1005400003FB02F37B617B699B08BB6146E0FB69AF
:100550001A1DFA617A6A111D796292ED007A3A6A7F
:10056000111D3962D2ED007A77EE277AC3ED007A59
:10057000FB691A1DFA617A6A111D796292ED007A9F
:100580003A6A111D3962D2ED007A77EE277AC3ED0F
:10059000007AFB691A1DFA617A6A111D796292ED7F
:1005A000007A3A6A111D3962D2ED007A77EE277A25
:1005B000C3ED007AFB691A1DFA617A6A111D79622E
:1005C00092ED007A3A6A111D3962D2ED007A77EE27
:1005D000277AC3ED007ABB69013BBB61BB69002B85
:1005E000B5D17B6903F00303BB6113E0FB691A1DFE
:1005F000FA617A6A111D796292ED007A3A6A111DE8
:100600003962D2ED007A77EE277AC3ED007ABB69C2
:10061000013BBB61BB69002BE8D10023FB7497F958
:10062000133018462C37BD465DF8047B704700BF79
:1006300080B586B000AF01214FF4001003F002F93D
:100640000121022003F0DEF8C0233B6102233B7549
:1006500002237B750123BB750123FB7507F1100392
:100660001946144803F02EF904220621114803F01C
:10067000B7F9042207210F4803F0B2F90E4B3B6093
:100680000023BB804BF6FF73FB8000233B810023DC
:100690007B814FF48043BB813B461946074803F0FA
:1006A00083FB0121054803F041FC00BF1837BD461C
:1006B00080BD00BF00040240A0860100005400403D
:1006C00080B582B000AF78600B46FB701346BB70FC
:1006D00000BF4FF40031786803F014FD0346002B8F
:1006E000F7D10121786803F041FC00BF1349786815
:1006F00003F0D8FC0346002BF8D0BA78FB781946F3
:10070000786803F073FCBB78002B08D100BF0C495C
:10071000786803F0C7FC0346002BF8D00AE0BB78EA
:10072000012B07D100BF0749786803F0BBFC0346E3
:10073000002BF8D000BF0837BD4680BD0100030084
:10074000820007000200030080B582B000AF78602D
:100750000B46FB701346BB70FB785B00DBB20022DC
:1007600019467868FFF7ACFF0121786803F05CFC5C
:10077000BB781946786803F077FC00BF07497868B2
:1007800003F090FC0346002BF8D00121786803F0B9
:100790000DFC00BF0837BD4680BD00BF84000700C8
:1007A00080B586B000AFF8607B600B46FB721346E5
:1007B000BB720023BB75FB7A5B00DBB200221946DB
:1007C000F868FFF77DFF0023FB7518E0FB7D7A6872
:1007D00013441B78BB750121F86803F025FCBB7D31
:1007E0001946F86803F040FC00BF0B49F86803F0B5
:1007F00059FC0346002BF8D0FB7D0133FB75FA7DD5
:10080000BB7A9A42E2D30121F86803F0CFFB00BF24
:100810001837BD4680BD00BF8400070090B587B083
:1008200000AFF8607B600B46FB721346BB72FB7A2D
:100830005B00DBB201221946F868FFF741FF002395
:10084000FB7516E00121F86803F0EEFB00BF1A49C2
:10085000F86803F027FC0346002BF8D0FB7D7A688C
:10086000D418F86803F010FC03462370FB7D0133B5
:10087000FB75FA7DBB7A013B9A42E3DB0021F86805
:1008800003F0D2FB00BF0C49F86803F00BFC0346F1
:10089000002BF8D0BB7A013B7A68D418F86803F0D3
:1008A000F3FB034623700121F86803F07FFB00BFD0
:1008B0001C37BD4690BD00BF4000030080B584B02A
:1008C00000AF78600B46FB70FB785B00DBB2012267
:1008D00019467868FFF7F4FE0021786803F0A4FB5E
:1008E0000121786803F062FB00BF0849786803F0D3
:1008F000D9FB0346002BF8D0786803F0C5FB03460C
:10090000FB73FB7B18461037BD4680BD40000300DB
:1009100080B582B000AF786078687B688433042249
:10092000062102F049FB7B6803F108007B68E43391
:100930000622042102F040FB7B6803F110007B6873
:1009400003F5A2730322032102F036FB7B6803F157
:1009500018007B6848330122062102F02DFB7B68DA
:1009600003F120007B6860330122042102F024FBA4
:100970007B6803F128007B6803F5B473012203212F
:1009800002F01AFB7B6803F130007B6803F5BA7351
:100990000122032102F010FB7B6803F138007B6821
:1009A00003F5C0730122032102F006FB7B6803F10B
:1009B00040007B6803F5C6730122032102F0FCFAB4
:1009C00000BF0837BD4680BD90B5ADF52F7D00AFA7
:1009D00007F10C04206007F108000160391D0A606E
:1009E0003A46136007F588735F4A1A605E4BC7F892
:1009F000B432002387F8B33207F58A731846FFF73D
:100A000087FF07F1CC0307F584700122032102F070
:100A1000D3FA07F1C00307F580700122032102F029
:100A2000CBFA07F1B40307F1F8000122032102F029
:100A3000C3FA07F1A40307F1F0000122042102F038
:100A4000BBFA07F1940307F1E8000122042102F048
:100A5000B3FA07F1540307F1E0000422042102F085
:100A6000ABFA07F1140307F1D8000422042102F0C5
:100A7000A3FA002387F8B23244E097F8B23297F82D
:100A8000B222920007F10C0109680A44126807F5C6
:100A90008A715A339B000B441A6097F8B23297F868
:100AA000B2229200391D09680A44126807F58A715A
:100AB0005C339B000B4404331A6097F8B23297F80A
:100AC000B222920007F1080109680A44126807F58A
:100AD0008A7160339B000B441A6097F8B23297F822
:100AE000B2229200394609680A44126807F58A71F1
:100AF00062339B000B4404331A6097F8B23201331F
:100B000087F8B23297F8B232022BB6D9002387F8B1
:100B1000B13222E097F8B13297F8B1229200D7F8BB
:100B2000C8120A44126807F58A7118339B000B44F7
:100B30001A6097F8B13297F8B1229200D7F8C8122C
:100B40000A44126807F58A711C339B000B441A6033
:100B500097F8B132013387F8B13297F8B132032BED
:100B6000D8D900F01DBF00BF0000C84297F8B332CB
:100B7000013387F8B33207F58A7393ED187A07F5D6
:100B80008A73D3ED187A27EE277A07F58A73D3EDA7
:100B9000196A07F58A73D3ED197A66EEA77A37EEEC
:100BA000677A07F58A73D3ED1A6A07F58A73D3ED6E
:100BB0001A7A66EEA77A37EE677A07F58A73D3ED6D
:100BC0001B6A07F58A73D3ED1B7A66EEA77A77EE78
:100BD000277A07F58A73C3ED517A07F58A7393ED87
:100BE000187A07F58A73D3ED197A27EE277A07F575
:100BF0008A73D3ED1A6A07F58A73D3ED1B7A66EE12
:100C0000A77A77EE277A77EEA77A07F58A73C3ED8E
:100C1000527A07F58A7393ED187A07F58A73D3ED44
:100C20001A7A27EE277A07F58A73D3ED196A07F542
:100C30008A73D3ED1B7A66EEA77A77EE677A77EE42
:100C4000A77A07F58A73C3ED537A07F58A7393ED94
:100C5000187A07F58A73D3ED197A27EE277A07F504
:100C60008A73D3ED1A6A07F58A73D3ED1B7A66EEA1
:100C7000A77A77EE677A77EEA77A07F58A73C3EDDE
:100C8000547A07F58A73D3ED187AB1EE677A07F5CF
:100C90008A73D3ED187A27EE277A07F58A73D3ED96
:100CA000196A07F58A73D3ED197A66EEA77A37EEDB
:100CB000277A07F58A73D3ED1A6A07F58A73D3ED9D
:100CC0001A7A66EEA77A37EE677A07F58A73D3ED5C
:100CD0001B6A07F58A73D3ED1B7A66EEA77A77EE67
:100CE000277A07F58A73C3ED557A07F58A7393ED72
:100CF000197A07F58A73D3ED1A7A27EE277A07F562
:100D00008A73D3ED186A07F58A73D3ED1B7A66EE02
:100D1000A77A77EE277A77EEA77A07F58A73C3ED7D
:100D2000567A07F58A7393ED187A07F58A73D3ED2F
:100D30001A7A27EE277A07F58A73D3ED196A07F531
:100D40008A73D3ED1B7A66EEA77A77EE277A77EE71
:100D5000A77A07F58A73C3ED577A07F58A7393ED7F
:100D6000197A07F58A73D3ED1A7A27EE277A07F5F1
:100D70008A73D3ED186A07F58A73D3ED1B7A66EE92
:100D8000A77A77EE677A77EEA77A07F58A73C3EDCD
:100D9000587A07F58A73D3ED187AB1EE677A07F5BA
:100DA0008A73D3ED187A27EE277A07F58A73D3ED85
:100DB000196A07F58A73D3ED197A66EEA77A37EECA
:100DC000677A07F58A73D3ED1A6A07F58A73D3ED4C
:100DD0001A7A66EEA77A37EE277A07F58A73D3ED8B
:100DE0001B6A07F58A73D3ED1B7A66EEA77A77EE56
:100DF000277A07F58A73C3ED597A07F5847207F5E8
:100E00008A7303F1300107F58A731033184603F033
:100E100095FE07F5807207F5847107F58A7328330C
:100E2000184602F027FE07F5847207F58A7303F16E
:100E3000400107F58A731033184603F07FFE07F16F
:100E4000F80207F5847107F58A733833184602F003
:100E500011FE002387F8B03213E097F8B03297F80C
:100E6000B02207F1C00192000A44126807F58A71A6
:100E700012339B000B441A6097F8B032013387F8A5
:100E8000B03297F8B032022BE7D9002387F8AF329F
:100E900014E097F8AF32033397F8AF2207F1B401AB
:100EA00092000A44126807F58A7112339B000B44C2
:100EB0001A6097F8AF32013387F8AF3297F8AF3244
:100EC000022BE6D907F58A73D3ED187AB8EE007ACB
:100ED00027EE877A07F10C031B68D3ED007A27EE23
:100EE000277A07F58A73D3ED197A77EEA76A07F1A7
:100EF0000C031B680433D3ED007A66EEA77A37EE55
:100F0000677A07F58A73D3ED1A7A77EEA76A07F145
:100F10000C031B680833D3ED007A66EEA77A77EEF0
:100F2000677A07F58A73C3ED217A07F58A73D3EDE3
:100F3000197A37EEA77A07F10C031B68D3ED007A14
:100F400027EE277A07F58A73D3ED187A77EEA76A2A
:100F500007F10C031B680433D3ED007A66EEA77A21
:100F600037EE677A07F58A73D3ED1B7A77EEA76AB7
:100F700007F10C031B680833D3ED007A66EEA77AFD
:100F800077EE277A07F58A73C3ED227A07F58A731D
:100F9000D3ED1A7A37EEA77A07F10C031B68D3ED6D
:100FA000007A27EE277A07F58A73D3ED1B7A77EE5E
:100FB000A76A07F10C031B680433D3ED007A66EED1
:100FC000A77A37EE677A07F58A73D3ED187A77EE4A
:100FD000A76A07F10C031B680833D3ED007A66EEAD
:100FE000A77A77EE677A07F58A73C3ED237A07F558
:100FF0008A73D3ED1B7AB8EE007A27EE877A07F171
:101000000C031B68D3ED007A27EE277A07F58A7365
:10101000D3ED1A7A77EEA76A07F10C031B68043345
:10102000D3ED007A66EEA77A37EE677A07F58A7312
:10103000D3ED197A77EEA76A07F10C031B68083322
:10104000D3ED007A66EEA77A77EE277A07F58A73F2
:10105000C3ED247A07F58A73D3ED197AB8EE007AD6
:1010600027EE877A07F10C031B68D3ED007A27EE91
:10107000277A07F58A73D3ED187A77EEA76A07F116
:101080000C031B680433D3ED007A66EEA77A37EEC3
:10109000277A07F58A73D3ED1B7A77EEA76A07F1F3
:1010A0000C031B680833D3ED007A66EEA77A77EE5F
:1010B000677A07F58A73C3ED257A07F58A73D3ED4E
:1010C000187AB8EE007A27EE877A07F10C031B68CE
:1010D000D3ED007A27EE277A07F58A73D3ED197AD4
:1010E00077EEA76A07F10C031B680433D3ED007A8F
:1010F00066EEA77A37EE677A07F58A73D3ED1A7A28
:1011000077EEA76A07F10C031B680833D3ED007A6A
:1011100066EEA77A77EE677A07F58A73C3ED267ACB
:1011200007F58A73D3ED1B7A37EEA77A07F10C0324
:101130001B68D3ED007A27EE277A07F58A73D3ED83
:101140001A7A77EEA76A07F10C031B680433D3ED14
:10115000007A66EEA77A37EE277A07F58A73D3ED21
:10116000197A77EEA76A07F10C031B680833D3EDF1
:10117000007A66EEA77A77EE677A07F58A73C3ED91
:10118000277A07F58A73D3ED1A7A37EEA77A07F133
:101190000C031B68D3ED007A27EE277A07F58A73D4
:1011A000D3ED1B7A77EEA76A07F10C031B680433B3
:1011B000D3ED007A66EEA77A37EE677A07F58A7381
:1011C000D3ED187A77EEA76A07F10C031B68083392
:1011D000D3ED007A66EEA77A77EE677A07F58A7321
:1011E000C3ED287A07F58A73D3ED1A7AB8EE007A40
:1011F00027EE877A07F10C031B68D3ED007A27EE00
:10120000277A07F58A73D3ED1B7A77EEA76A07F181
:101210000C031B680433D3ED007A66EEA77A37EE31
:10122000277A07F58A73D3ED187A77EEA76A07F164
:101230000C031B680833D3ED007A66EEA77A77EECD
:10124000277A07F58A73C3ED297A07F58A73D3EDF8
:101250001B7AB8EE007A27EE877A07F10C031B6839
:10126000D3ED007A27EE277A07F58A73D3ED1A7A41
:1012700077EEA76A07F10C031B680433D3ED007AFD
:1012800066EEA77A37EE677A07F58A73D3ED197A97
:1012900077EEA76A07F10C031B680833D3ED007AD9
:1012A00066EEA77A77EE277A07F58A73C3ED2A7A76
:1012B00007F58A73D3ED187AB8EE007A27EE877AAD
:1012C00007F10C031B68D3ED007A27EE277A07F5A8
:1012D0008A73D3ED197A77EEA76A07F10C031B68BE
:1012E0000433D3ED007A66EEA77A37EE677A07F516
:1012F0008A73D3ED1A7A77EEA76A07F10C031B689D
:101300000833D3ED007A66EEA77A77EE677A07F5B1
:101310008A73C3ED2B7A07F58A73D3ED197AB8EE89
:10132000007A27EE877A07F10C031B68D3ED007A69
:1013300027EE277A07F58A73D3ED187A77EEA76A36
:1013400007F10C031B680433D3ED007A66EEA77A2D
:1013500037EE277A07F58A73D3ED1B7A77EEA76A03
:1013600007F10C031B680833D3ED007A66EEA77A09
:1013700077EE677A07F58A73C3ED2C7A07F58A73DF
:10138000D3ED187AB8EE007A27EE877A07F10803D2
:101390001B68D3ED007A27EE277A07F58A73D3ED21
:1013A000197A77EEA76A07F108031B680433D3EDB7
:1013B000007A66EEA77A37EE677A07F58A73D3ED7F
:1013C0001A7A77EEA76A07F108031B680833D3ED92
:1013D000007A66EEA77A77EE677A07F58A73C3ED2F
:1013E0002D7A07F58A73D3ED197A37EEA77A07F1CC
:1013F00008031B68D3ED007A27EE277A07F58A7376
:10140000D3ED187A77EEA76A07F108031B68043357
:10141000D3ED007A66EEA77A37EE677A07F58A731E
:10142000D3ED1B7A77EEA76A07F108031B68083330
:10143000D3ED007A66EEA77A77EE277A07F58A73FE
:10144000C3ED2E7A07F58A73D3ED1A7A37EEA77AB1
:1014500007F108031B68D3ED007A27EE277A07F51A
:101460008A73D3ED1B7A77EEA76A07F108031B682E
:101470000433D3ED007A66EEA77A37EE677A07F584
:101480008A73D3ED187A77EEA76A07F108031B6811
:101490000833D3ED007A66EEA77A77EE677A07F520
:1014A0008A73C3ED2F7A07F58A73D3ED1B7AB8EEF2
:1014B000007A27EE877A07F108031B68D3ED007ADC
:1014C00027EE277A07F58A73D3ED1A7A77EEA76AA3
:1014D00007F108031B680433D3ED007A66EEA77AA0
:1014E00037EE677A07F58A73D3ED197A77EEA76A34
:1014F00007F108031B680833D3ED007A66EEA77A7C
:1015000077EE277A07F58A73C3ED307A07F58A7389
:10151000D3ED197AB8EE007A27EE877A07F108033F
:101520001B68D3ED007A27EE277A07F58A73D3ED8F
:10153000187A77EEA76A07F108031B680433D3ED26
:10154000007A66EEA77A37EE277A07F58A73D3ED2D
:101550001B7A77EEA76A07F108031B680833D3EDFF
:10156000007A66EEA77A77EE677A07F58A73C3ED9D
:10157000317A07F58A73D3ED187AB8EE007A27EE40
:10158000877A07F108031B68D3ED007A27EE277AE4
:1015900007F58A73D3ED197A77EEA76A07F1080386
:1015A0001B680433D3ED007A66EEA77A37EE677ACC
:1015B00007F58A73D3ED1A7A77EEA76A07F1080365
:1015C0001B680833D3ED007A66EEA77A77EE677A68
:1015D00007F58A73C3ED327A07F58A73D3ED1B7A68
:1015E00037EEA77A07F108031B68D3ED007A27EEE0
:1015F000277A07F58A73D3ED1A7A77EEA76A07F18F
:1016000008031B680433D3ED007A66EEA77A37EE41
:10161000277A07F58A73D3ED197A77EEA76A07F16F
:1016200008031B680833D3ED007A66EEA77A77EEDD
:10163000677A07F58A73C3ED337A07F58A73D3EDBA
:101640001A7A37EEA77A07F108031B68D3ED007A00
:1016500027EE277A07F58A73D3ED1B7A77EEA76A10
:1016600007F108031B680433D3ED007A66EEA77A0E
:1016700037EE677A07F58A73D3ED187A77EEA76AA3
:1016800007F108031B680833D3ED007A66EEA77AEA
:1016900077EE677A07F58A73C3ED347A07F58A73B4
:1016A000D3ED1A7AB8EE007A27EE877A07F10803AD
:1016B0001B68D3ED007A27EE277A07F58A73D3EDFE
:1016C0001B7A77EEA76A07F108031B680433D3ED92
:1016D000007A66EEA77A37EE277A07F58A73D3ED9C
:1016E000187A77EEA76A07F108031B680833D3ED71
:1016F000007A66EEA77A77EE277A07F58A73C3ED4C
:10170000357A07F58A73D3ED1B7AB8EE007A27EEA7
:10171000877A07F108031B68D3ED007A27EE277A52
:1017200007F58A73D3ED1A7A77EEA76A07F10803F3
:101730001B680433D3ED007A66EEA77A37EE677A3A
:1017400007F58A73D3ED197A77EEA76A07F10803D4
:101750001B680833D3ED007A66EEA77A77EE277A16
:1017600007F58A73C3ED367A07F58A73D3ED187AD5
:10177000B8EE007A27EE877A07F108031B68D3EDED
:10178000007A27EE277A07F58A73D3ED197A77EE78
:10179000A76A07F108031B680433D3ED007A66EEED
:1017A000A77A37EE677A07F58A73D3ED1A7A77EE60
:1017B000A76A07F108031B680833D3ED007A66EEC9
:1017C000A77A77EE677A07F58A73C3ED377A07F55C
:1017D0008A73D3ED197AB8EE007A27EE877A07F18B
:1017E00008031B68D3ED007A27EE277A07F58A7382
:1017F000D3ED187A77EEA76A07F108031B68043364
:10180000D3ED007A66EEA77A37EE277A07F58A736A
:10181000D3ED1B7A77EEA76A07F108031B6808333C
:10182000D3ED007A66EEA77A77EE677A07F58A73CA
:10183000C3ED387A07F58A7303F1080207F58A7356
:101840001146184602F0BCF907F1E00207F58A716B
:1018500007F58A730833184603F070F907F1D802C8
:1018600007F1E00311461846FEF78EFC07F1F0027F
:1018700007F58A7303F1180107F58A7308331846D0
:1018800003F05CF907F1E80207F1F00107F1D80372
:10189000184603F053F907F1F00207F1E80107F5E4
:1018A0008A732033184602F0E5F807F5887107F1CE
:1018B00094030422184600F09FF807F58A7303F199
:1018C000800107F1A4030422184600F095F807F5FB
:1018D0008A73D3ED207AF5EEC07AF1EE10FA13DDBB
:1018E00007F58A73D3ED207AB7EE007AC7EE276A40
:1018F00007F58A7303F1200207F1F0031146B0EEF9
:10190000660A184602F0D6F907F5887393ED007A57
:10191000D7EDAD7AB4EEE77AF1EE10FA00D43FE0FD
:1019200007F588731B68C7F8B43207F588731A681F
:10193000D7F8D4321A6097F8B33207EE903AF8EE3F
:10194000677AD7F8D032C3ED007A002387F8AE3239
:1019500014E097F8AE3297F8AE2207F58A71183284
:1019600092000A44126807F58A711C339B000B44ED
:101970001A6097F8AE32013387F8AE3297F8AE327C
:10198000032BE6D907F588731B68184603F0FEFEA3
:1019900017A3D3E9002304F0C9F90346002B05D1AE
:1019A00097F8B3320E2B7FF6E1A800E000BF0023CA
:1019B00087F8AD3213E097F8AD329B00D7F8CC2210
:1019C000134497F8AD2207F58A711C3292000A443D
:1019D00012681A6097F8AD32013387F8AD3297F884
:1019E000AD32032BE7D900BF07F52F77BD4690BD79
:1019F0007B14AE47E17A843F80B586B000AFF860D3
:101A0000B9601346FB71BB684FF000021A600023F7
:101A1000FB7518E0BB6893ED007AFB7D9B00FA68CC
:101A20001344D3ED006AFB7D9B00FA681344D3EDA9
:101A3000007A66EEA77A77EE277ABB68C3ED007A64
:101A4000FB7D0133FB75FA7DFB799A42E2D3BB68DB
:101A5000D3ED007AB0EE670A03F0CEF9F0EE407AEB
:101A6000BB68C3ED007A00BF1837BD4680BD00BF1C
:101A700080B584B000AF7860084611461A46034628
:101A8000FB700B46BB7013467B70BB783B737B7857
:101A90007B7307F10C03F97802227868FEF780FE69
:101AA00000BF1037BD4680BD80B582B000AF786002
:101AB0000B46FB701346BB70BA78FB781946786802
:101AC000FEF742FEFB7819467868FEF7F7FE0346FC
:101AD00018460837BD4680BD80B584B000AFF860B9
:101AE0007B600B46FB721346BB72BA7AF97A7B684D
:101AF000F868FEF755FE00BF1037BD4680BD00BF39
:101B000080B582B000AF7860084611461A46034699
:101B1000FB700B46BB7013467B70BA78FB78194696
:101B20007868FEF711FE7A78F9783B697868FEF7F5
:101B300075FE00BF0837BD4680BD00BF80B586B0CA
:101B400000AFF860B9601346FB714C4B3B61FB681A
:101B5000FA795A70FB680C221A70FB68BA685A60EE
:101B6000FB685868FB685B7875221946FFF79CFF95
:101B70000346712B01D001237CE0FB685868FB68A9
:101B8000597800236B22FFF773FF0023FB7511E0E8
:101B9000FB7DFA6820335B00134400229A80FB7DB2
:101BA000FA6816339B0013444FF000021A60FB7D65
:101BB0000133FB75FB7D082BEAD90023BB754FE091
:101BC000BB7DFA6806339B00134404334FF00002D8
:101BD0001A60BB7DFA680A339B0013444FF0000281
:101BE0001A60BB7DFA6842339B00134404334FF004
:101BF00000021A60BB7DFA6828339B0013444FF043
:101C000000021A60BB7DFA682A339B001344043338
:101C10004FF000021A60BB7DFA682E339B0013441C
:101C20004FF000021A60BB7DFA6830339B0013440A
:101C300004334FF000021A60BB7DFA6834339B0016
:101C400013444FF000021A60BB7DFA6836339B00E4
:101C5000134404334FF000021A60BB7D0133BB759F
:101C6000BB7D022BACD9064B4FF081421A6001F0CC
:101C7000A5FB002318461837BD4680BD0054004020
:101C80005404002080B588B002AF78600846114641
:101C90001A460346FB700B46BB7013467B701A2333
:101CA0003B74FB787B74BB78BB747B78FB7497F8D0
:101CB00020303B750023FB607B6858687B6859784F
:101CC00007F110030522FFF707FF7B6897F8202034
:101CD0005A727B687A781A727B68FA78DA727B6853
:101CE000BA789A727B6858687B68597807F10C0358
:101CF000009304231A22FFF703FF0023FB7513E070
:101D0000FB7D07F11802134413F80C2CFB7D013303
:101D100007F118010B4413F8083C9A4201D0032341
:101D200006E0FB7D0133FB75FB7D032BE8D9002327
:101D300018461837BD4680BD80B588B000AF7860C2
:101D4000584A07F114031068186092889A80564A1E
:101D500007F10C031068186092889A800023FB61D9
:101D600056E0786800F034FA0023FB7644E0FB7E0E
:101D700003337A6820335B001344B3F90420FB7EFD
:101D80005B0007F120010B4433F90C3C9A420FDD54
:101D9000FA7EFB7E0333796820335B000B44B3F992
:101DA0000410530007F1200213440A4623F80C2CB8
:101DB000FB7E03337A6820335B001344B3F90420BD
:101DC000FB7E5B0007F120010B4433F9143C9A427F
:101DD0000FDAFA7EFB7E0333796820335B000B4415
:101DE000B3F90410530007F1200213440A4623F804
:101DF000142CFB7E0133FB76FB7E022BB7D92B4BD9
:101E00004FF07E521A6001F0D9FAFB690133FB6191
:101E1000FB69312BA5DDB7F914301A46B7F90C3040
:101E20001344DA0F13445B1007EE903AF8EEE77AAA
:101E30007B68C3ED077AB7F916301A46B7F90E304A
:101E40001344DA0F13445B1007EE903AF8EEE77A8A
:101E50007B68C3ED087AB7F918301A46B7F9103025
:101E60001344DA0F13445B1007EE903AF8EEE77A6A
:101E70007B68C3ED097A7B680D4A9A627B680D4ADC
:101E8000DA627B680C4A1A637B680C4A5A637B6887
:101E90000B4A9A637B680B4ADA6300BF2037BD4662
:101EA00080BD00BF145E00081C5E000854040020C2
:101EB0000000D0410000604100000C4246B6933F54
:101EC0008FC2953FCDCC8C3F80B584B000AF786099
:101ED0000B46FB700023FB6002E0FB680133FB60F4
:101EE000FB6842F20F729342F7D97B6858687B68AF
:101EF000597802233722FFF7BBFD7B6858687B685F
:101F00001978FB780A22FFF7B3FD7B6858687B6875
:101F10001B780A221946FFF7C7FD03461A46FB78CD
:101F2000934201D0022308E07B6858687B685978A7
:101F300002233722FFF79CFD002318461037BD46C9
:101F400080BD00BF80B586B002AF786007F108039E
:101F500000221A609A8000BF7B6858687B681B78F3
:101F600002221946FFF7A0FD034603F00103002BF0
:101F7000F2D07B6858687B68197807F108030093F2
:101F800006230322FFF7BCFD7B6858687B681B783B
:101F900009221946FFF788FD7B7A1B021AB23B7AA9
:101FA0001BB213431AB27B68A3F85020FB7A1B02C2
:101FB0001AB2BB7A1BB213431AB27B68A3F8522041
:101FC0007B7B1B021AB23B7B1BB213431BB29BB23F
:101FD0005B429BB21AB27B68A3F8542000BF103753
:101FE000BD4680BD80B58AB000AF78600B46FB70FF
:101FF000594A07F1180307CA83E80700574A07F14F
:102000000C0307CA83E80700002387F827306BE03A
:102010007868FFF797FF786800F0BEFA002387F82A
:10202000263052E097F8263006337A6816339B0044
:10203000134493ED007A97F826309B0007F12802AD
:102040001344103BD3ED007AB4EEE77AF1EE10FAC8
:102050000FDD97F8263097F8262006327968163279
:1020600092000A4412689B0007F128010B44103BC0
:102070001A6097F8263006337A6816339B001344AB
:1020800093ED007A97F826309B0007F1280213445D
:102090001C3BD3ED007AB4EEE77AF1EE10FA0FD5DF
:1020A00097F8263097F82620063279681632920083
:1020B0000A4412689B0007F128010B441C3B1A607C
:1020C00097F82630013387F8263097F82630022B10
:1020D000A8D9234B4FF07E521A6001F06FF997F8A0
:1020E0002730013387F8273097F82720FB785B00EB
:1020F0009A428DDB002387F8253025E097F82530BC
:10210000063397F82520920007F128010A44103A77
:1021100092ED007A97F82520920007F128010A44F1
:102120001C3AD2ED007A37EE277AF0EE006AC7EE5D
:10213000267A7A6816339B001344C3ED007A97F829
:102140002530013387F8253097F82530022BD5D973
:1021500000BF2837BD4680BD245E0008305E000801
:102160005404002080B586B002AF786007F1080300
:1021700000221A609A807B6858687B68597807F15A
:102180000803009306233B22FFF7BAFC3B7A1B02AD
:102190001AB27B7A1BB213431AB27B68A3F84620AB
:1021A000BB7A1B021AB2FB7A1BB213431AB27B68CA
:1021B000A3F844203B7B1B021AB27B7B1BB2134368
:1021C0001AB27B68A3F8482000BF1037BD4680BD17
:1021D00080B588B002AF786007F10C0300221A6066
:1021E0005A601A727B6858687B68597807F10C034B
:1021F000009306234322FFF783FC3B7B1B021AB2AA
:102200007B7B1BB213431BB29BB25B429BB21AB2E5
:102210007B68A3F84C20BB7B1B021AB2FB7B1BB272
:1022200013431BB29BB25B429BB21AB27B68A3F80A
:102230004A203B7C1B021AB27B7C1BB213431BB2AD
:102240009BB25B429BB21AB27B68A3F84E2000BFE0
:102250001837BD4680BD00BF80B58AB000AF78603A
:102260000B46FB70594A07F1180307CA83E80700B9
:10227000574A07F10C0307CA83E80700002387F8D1
:1022800027306BE07868FFF7A3FF786800F084F9E7
:10229000002387F8263052E097F8263003337A6817
:1022A00016339B00134493ED007A97F826309B0079
:1022B00007F128021344103BD3ED007AB4EEE77A1D
:1022C000F1EE10FA0FDD97F8263097F8262003324A
:1022D0007968163292000A4412689B0007F12801BF
:1022E0000B44103B1A6097F8263003337A68163394
:1022F0009B00134493ED007A97F826309B0007F17A
:10230000280213441C3BD3ED007AB4EEE77AF1EED9
:1023100010FA0FD597F8263097F8262003327968FF
:10232000163292000A4412689B0007F128010B4400
:102330001C3B1A6097F82630013387F8263097F84F
:102340002630022BA8D9234B4FF07E521A6001F0A1
:1023500035F897F82730013387F8273097F827208A
:10236000FB789A428ED3002387F8253025E097F832
:102370002530033397F82520920007F128010A44FD
:10238000103A92ED007A97F82520920007F1280183
:102390000A441C3AD2ED007A37EE277AF0EE006A52
:1023A000C7EE267A7A6816339B001344C3ED007A91
:1023B00097F82530013387F8253097F82530022B20
:1023C000D5D900BF2837BD4680BD00BF3C5E0008A0
:1023D000485E00085404002080B588B002AF7860E1
:1023E00007F1080300221A605A609A609A817B689C
:1023F00058687B68597807F1080300930E233B2245
:10240000FFF77EFB3B7A1B021AB27B7A1BB21343A7
:102410001AB27B68A3F84620BB7A1B021AB2FB7A79
:102420001BB213431AB27B68A3F844203B7B1B0208
:102430001AB27B7B1BB213431AB27B68A3F8482005
:102440003B7C1B021AB27B7C1BB213431BB29BB2B8
:102450005B429BB21AB27B68A3F84C20BB7C1B0288
:102460001AB2FB7C1BB213431BB29BB25B429BB202
:102470001AB27B68A3F84A203B7D1B021AB27B7D0F
:102480001BB213431BB29BB25B429BB21AB27B6876
:10249000A3F84E2000BF1837BD4680BD80B582B07E
:1024A00000AF78607868FFF797FF7868FFF74AFD1C
:1024B000786800F071F800BF0837BD4680BD00BFE6
:1024C00080B582B000AF78603960786800F09CFB1E
:1024D0007868FFF747FE3B68DBB219467868FFF77C
:1024E000BBFE3B68DBB219467868FFF77BFD00BF97
:1024F0000837BD4680BD00BF80B584B000AF7860AE
:10250000396039687868FFF7DBFF0023FB7329E047
:10251000FB7BFA7B7968163292000A44126879686C
:102520003A339B000B441A60FB7BFA7B03327968D9
:10253000163292000A44126879683C339B000B44BF
:1025400004331A60FB7BFA7B0632796816329200FC
:102550000A441268796840339B000B441A60FB7B85
:102560000133FB73FB7B022BD2D90023BB730BE03F
:10257000BB7B7A6842339B00134404334FF0000264
:102580001A60BB7B0133BB73BB7B022BF0D900BF4E
:102590001037BD4680BD00BF2DE9F0438BB000AFC2
:1025A0007860DB4BBB61DB4B7B617B681B7A182B54
:1025B00000F20E8101A252F823F000BF212600088C
:1025C000D1270008D1270008D1270008D12700080B
:1025D000D1270008D1270008D12700088D26000840
:1025E000D1270008D1270008D1270008D1270008EB
:1025F000D1270008D1270008D1270008F9260008B4
:10260000D1270008D1270008D1270008D1270008CA
:10261000D1270008D1270008D12700086527000826
:10262000002387F827302CE097F8274097F82730C9
:102630007A6820335B001344B3F90430184603F082
:1026400093F8A9A3D3E9002303F0F4F802460B465C
:10265000104619464FF00002AF4B03F015FA024640
:102660000B461046194603F07FFB01467A6804F1D9
:1026700016039B001344196097F82730013387F83D
:10268000273097F82730022BCED9A1E0002387F816
:1026900026302CE097F8264097F826307A682033C9
:1026A0005B001344B3F90430184603F05DF890A3BF
:1026B000D3E9002303F0BEF802460B461046194644
:1026C0004FF00002944B03F0DFF902460B46104630
:1026D000194603F049FB01467A6804F116039B0092
:1026E0001344196097F82630013387F8263097F89D
:1026F0002630022BCED96BE0002387F825302CE062
:1027000097F8254097F825307A6820335B0013440A
:10271000B3F90430184603F027F877A3D3E9002370
:1027200003F088F802460B46104619464FF00002A7
:10273000794B03F0A9F902460B461046194603F0FF
:1027400013FB01467A6804F116039B0013441960D9
:1027500097F82530013387F8253097F82530022B7C
:10276000CED935E0002387F824302CE097F82440B8
:1027700097F824307A6820335B001344B3F90430AF
:10278000184602F0F1FF5EA3D3E9002303F052F8EC
:1027900002460B46104619464FF000025E4B03F00E
:1027A00073F902460B461046194603F0DDFA01465E
:1027B0007A6804F116039B001344196097F82430DB
:1027C000013387F8243097F82430022BCED900BF8C
:1027D0007B689B7A182B00F27E8101A252F823F0CD
:1027E00045280008D72A0008D72A0008D72A000859
:1027F000D72A0008D72A0008D72A0008D72A0008B5
:10280000DB280008D72A0008D72A0008D72A0008A2
:10281000D72A0008D72A0008D72A0008D72A000894
:10282000AB290008D72A0008D72A0008D72A0008B1
:10283000D72A0008D72A0008D72A0008D72A000874
:10284000412A0008032387F8233041E097F823400A
:1028500097F823307A6820335B001344B3F90430CF
:1028600007EE903AB8EEE77A97F82330033B7A68A0
:1028700006339B0013440433D3ED007A77EE677A76
:1028800017EE900A02F082FF1FA3D3E9002302F0A3
:10289000D1FF02460B4615461E46B86902F076FF88
:1028A00002460B462846314602F0C4FF02460B465C
:1028B0001046194603F058FA01467A6804F11603E7
:1028C0009B001344196097F82330013387F82330B5
:1028D00097F82330052BB9D9FDE0032387F8223080
:1028E0005EE000BFAFF3008008AC1C5A643BAF3F12
:1028F000C79DD2C1FA3FBF3F910F7A36AB3ECF3F63
:10290000C79DD2C1FA3FDF3F821DFF058200493FCC
:1029100035FA8E3CC3F51C4100408F4097F82240A9
:1029200097F822307A6820335B001344B3F90430FF
:1029300007EE903AB8EEE77A97F82230033B7A68D0
:1029400006339B0013440433D3ED007A77EE677AA5
:1029500017EE900A02F01AFFA3A3D3E9002302F0B6
:1029600069FF02460B4615461E46B86902F00EFF87
:1029700002460B462846314602F05CFF02460B46F3
:102980001046194603F0F0F901467A6804F116037F
:102990009B001344196097F82230013387F82230E6
:1029A00097F82230052BB9D995E0032387F8213019
:1029B00041E097F8214097F821307A6820335B0096
:1029C0001344B3F9043007EE903AB8EEE77A97F87B
:1029D0002130033B7A6806339B0013440433D3ED64
:1029E000007A77EE677A17EE900A02F0CFFE80A3A6
:1029F000D3E9002302F01EFF02460B4615461E4691
:102A0000B86902F0C3FE02460B462846314602F082
:102A100011FF02460B461046194603F0A5F9014680
:102A20007A6804F116039B001344196097F821306B
:102A3000013387F8213097F82130052BB9D94AE0C6
:102A4000032387F8203041E097F8204097F82030A2
:102A50007A6820335B001344B3F9043007EE903AF0
:102A6000B8EEE77A97F82030033B7A6806339B008C
:102A700013440433D3ED007A77EE677A17EE900AA9
:102A800002F084FE5CA3D3E9002302F0D3FE0246E9
:102A90000B4615461E46B86902F078FE02460B4604
:102AA0002846314602F0C6FE02460B46104619463D
:102AB00003F05AF901467A6804F116039B001344A7
:102AC000196097F82030013387F8203097F82030CC
:102AD000052BB9D900BF0623FB774BE0FC7FFB7FBA
:102AE000063B7A680C339B00134404331B6818467A
:102AF00002F04CFE05460E46FB7F7A6820335B00F1
:102B00001344B3F9043007EE903AF8EEE77A17EE83
:102B1000900A02F03BFE3AA3D3E9002302F08AFEBA
:102B200002460B4690469946FB7F063B7A680A337D
:102B30009B0013441B68184602F028FE02460B4611
:102B40004046494602F0C2FC02460B462846314642
:102B500002F070FE02460B461046194603F004F9D7
:102B600001467A6804F116039B0013441960FB7F49
:102B70000133FB77FB7F082BB0D90023BB7729E01B
:102B8000BB7FBA7F7968163292000A44126879686E
:102B900028339B000B441A60BB7FBA7F03327968ED
:102BA000163292000A44126879682A339B000B445B
:102BB00004331A60BB7FBA7F0632796816329200FE
:102BC0000A44126879682E339B000B441A60BB7F5D
:102BD0000133BB77BB7F022BD2D900BF2C37BD4658
:102BE000BDE8F083AFF30080BD1DE1B4E0458F3F49
:102BF0009B8F6B43C5389F3F650113B87537AF3F57
:102C0000333333333333C33F80B485B000AF7860A0
:102C10000023FB7329E0FB7BFA7B79682832920062
:102C20000A441268796830339B000B4404331A60FD
:102C3000FB7BFA7B79682A3292000A4404321268DC
:102C4000796834339B000B441A60FB7BFA7B79680C
:102C50002E3292000A441268796836339B000B4486
:102C600004331A60FB7B0133FB73FB7B022BD2D94D
:102C700000BF1437BD465DF8047B704780B485B053
:102C800000AF786087ED000A284BBB600023FB7320
:102C900042E0FB7B7A6842339B0013440433D3ED5C
:102CA000007A9FED237AF4EEC77AF1EE10FA0ED493
:102CB000FB7B7A6842339B0013440433D3ED007AE4
:102CC0009FED1C7AF4EEC77AF1EE10FA21DDFB7B62
:102CD000FA7B7968423292000A44043292ED007A1B
:102CE000FA7B03327968163292000A44D2ED006A08
:102CF000D7ED007A66EEA76AD7ED027A66EEA77A7C
:102D000077EE277A7A6842339B0013440433C3ED8D
:102D1000007AFB7B0133FB73FB7B022BB9D900BF2D
:102D20001437BD465DF8047B704700BF33336542FE
:102D300000007A4400007AC480B58AB000AF7860A1
:102D4000396000237B6200233B620023FB61002388
:102D5000BB617B681B8A9BB27B627B6A23F4405316
:102D60007B623B68DB881A467B6A13437B627B6A23
:102D70009AB27B681A827B689B899BB27B627B6A72
:102D800023F4B05323F00C037B623B689A883B68C2
:102D90001B8913439AB23B685B8913439BB21A4663
:102DA0007B6A13437B627B6A9AB27B689A817B68F9
:102DB0009B8A9BB27B627B6A23F440737B623B6895
:102DC0009B891A467B6A13437B627B6A9AB27B6853
:102DD0009A8207F10803184600F06AFC7B68304AC3
:102DE000934203D07B682F4A934202D17B693B62B6
:102DF00001E03B693B627B689B899BB21BB2002B65
:102E00000CDA3A6A13469B0013449A001A443B6852
:102E10001B685B00B2FBF3F3FB610BE03A6A1346FD
:102E20009B0013449A001A443B681B689B00B2FB4A
:102E3000F3F3FB61FB691C4AA2FB03235B091B0143
:102E40007B627B6A1B09642202FB03F3FA69D31AD3
:102E5000BB617B689B899BB21BB2002B0CDABB6900
:102E6000DB003233104AA2FB03235B0903F00703A4
:102E70007A6A13437B620BE0BB691B0132330A4A57
:102E8000A2FB03235B0903F00F037A6A13437B62FF
:102E90007B6A9AB27B681A8100BF2837BD4680BD25
:102EA00000100140001401401F85EB5180B483B035
:102EB00000AF78600B46FB70FB78002B08D07B6876
:102EC0009B899BB243F400539AB27B689A8107E0D6
:102ED0007B689B899BB223F400539AB27B689A81EA
:102EE00000BF0C37BD465DF8047B704780B483B0EB
:102EF00000AF78600B467B807B687A889A8000BF41
:102F00000C37BD465DF8047B704700BF80B485B0C8
:102F100000AF78600B467B800023FB737B681B88C7
:102F20009AB27B8813409BB2002B02D00123FB7323
:102F300001E00023FB73FB7B18461437BD465DF8A8
:102F4000047B704780B582B000AF134B7B60134B9E
:102F50003B6007E03B681A1D3A607A68111D796092
:102F600012681A603B680E4A9342F3D30D480E492B
:102F70004FF000028842B8BF40F8042BFADBDFF8BC
:102F80002C00016841F47001016000F079F800BF85
:102F90000837BD4680BD00BFE45E00080000002089
:102FA00054040020540400205C04002088ED00E05C
:102FB00080B400AFFEE700BF80B485B000AFF8601A
:102FC0007B600B467B8113463B81FB687A891A80C4
:102FD000FB683A895A80FB687A685A6000BF1437E8
:102FE000BD465DF8047B704780B483B000AF0346F4
:102FF0003960FB7197F90730002B0BDA0D49FB792B
:1030000003F00F03043B3A68D2B21201D2B20B4470
:103010001A7609E0084997F907303A68D2B21201E6
:10302000D2B20B4483F8002300BF0C37BD465DF8D5
:10303000047B704700ED00E000E100E080B582B065
:1030400000AF78607B68B3F1807F01D3012311E08A
:103050000A4A7B6823F07F43013B53600F214FF006
:10306000FF30FFF7C1FF054B00229A60034B072298
:103070001A60002318460837BD4680BD10E000E006
:10308000B0B5ADF5087D04AFC44BC7F80C3207F1FD
:1030900078034FF000021A6007F178034FF0000246
:1030A0005A6007F178034FF000029A6007F1780345
:1030B0004FF07E52DA6007F168034FF000021A60A9
:1030C00007F168034FF000025A6007F168034FF000
:1030D00000029A6007F168034FF07E52DA6007F150
:1030E00058034FF000021A6007F158034FF0000236
:1030F0005A6007F158034FF000029A6007F1580335
:103100004FF07E52DA6007F148031A46002313603D
:1031100053609360D36007F10803A14A1C4615462B
:103120000FCD0FC40FCD0FC40FCD0FC495E80F0006
:1031300084E80F003B1D4FF000021A603B464FF041
:1031400000021A60002387F80B32964B1B68964AE0
:10315000A2FB03239B091846FFF770FF0346002BD1
:1031600000D0FEE701F0C8FDFDF762FA07F1EC03BD
:1031700068228E491846FEF7E1FC034687F80632BE
:1031800007F1EC0003230093102318220321FEF71C
:1031900079FD034687F8063207F1EC03162118463D
:1031A000FEF792FE034687F8063207F1EC03184655
:1031B000FEF7C2FD07F1EC030A211846FFF79CF960
:1031C0007B4B4FF000021A6097F80B32013387F8FF
:1031D0000B3207F1EC031846FFF760F907F1EC0337
:1031E00097ED830A1846FFF749FD07F1EC0303F555
:1031F000807407F1EC0303F1E80207F1EC0303F13B
:10320000B80107F1EC0303F1A0003B4603933B1D1B
:10321000029307F16803019307F1580300932346D3
:10322000FDF7D2FB07F1EC0303F1AC0407F1080250
:1032300007F1780107F1680007F17803009397ED33
:10324000830A234601F0EEF807F1EC0303F1AC0228
:1032500007F1880107F17803184600F0E9F897F8BC
:103260000B32082B40F08A80002387F80B320023B2
:1032700087F80A3212E097F80A3297F80A2207F123
:10328000780192000A44126807F194019B000B44F4
:103290001A6097F80A32013387F80A3297F80A322F
:1032A000032BE8D9002387F8093214E097F8093294
:1032B000043397F8092207F1EC01163292000A4410
:1032C000126807F194019B000B441A6097F80932C9
:1032D000013387F8093297F80932082BE6D9002321
:1032E00087F8083213E097F808320D3397F8082270
:1032F00007F1880192000A44126807F194019B00CB
:103300000B441A6097F80832013387F8083297F8AF
:103310000832022BE7D907F19403D7F80C221A647C
:10332000002387F8073215E097F80732113397F832
:10333000072207F1EC01423292000A44043212687B
:1033400007F194019B000B441A6097F80732013390
:1033500087F8073297F80732022BE5D93B1D1A6828
:1033600007F194031A653B461A6807F194035A65FE
:1033700007F194031621184601F004FD0D4B4FF0A0
:103380007E521A6000F01AF8094B93ED007ADFEDD7
:103390000A6AC7EE267AC7ED837A11E7CDCC4C3E98
:1033A000545E000810000020D34D6210005400400D
:1033B00058040020540400200000C84280B400AF2C
:1033C00000BF064BD3ED007AF5EE407AF1EE10FA2D
:1033D000F7D100BFBD465DF8047B70475404002060
:1033E00080B400AF104BD3ED007AB7EE007A77EEE1
:1033F000877A0D4BC3ED007A0C4BD3ED007AF5EED6
:10340000C07AF1EE10FA00DC09E0084BD3ED007A47
:10341000B7EE007A77EEC77A044BC3ED007A00BFAF
:10342000BD465DF8047B704758040020540400201A
:10343000F0B589B000AFF860B9607A604FF0000372
:103440007B614FF00003BB614FF00003FB61FB6841
:1034500093ED007AFB680833D3ED007A27EE277AE4
:10346000FB680C33D3ED006AFB680433D3ED007ABC
:1034700066EEA77A77EE677A77EEA77AC7ED057AD8
:10348000FB680C3393ED007AFB68D3ED007A27EEEE
:10349000277AFB680433D3ED006AFB680833D3ED69
:1034A000007A66EEA77A77EE277A77EEA77AC7EDED
:1034B000067AFB680C3393ED007AFB680C33D3ED8E
:1034C000007A27EE277AFB68D3ED006AFB68D3ED1C
:1034D000007A66EEA77A37EE677AFB680433D3ED9D
:1034E000006AFB680433D3ED007A66EEA77A37EE04
:1034F000677AFB680833D3ED006AFB680833D3EDC5
:10350000007A66EEA77A77EE277AC7ED077AFB682E
:10351000D3ED007A37EEA77AFB680433D3ED007A57
:1035200027EE277AFB680C33D3ED007A77EEA76A93
:10353000FB680833D3ED007A66EEA77A77EE677AF8
:1035400017EE900A02F022F904460D46FB680C3390
:10355000D3ED007A37EEA77AFB680C33D3ED007A0F
:1035600027EE277AFB68D3ED007A77EEA76AFB682F
:10357000D3ED007A66EEA77A77EE277AB7EE007A77
:1035800077EEC77A17EE900A02F000F902460B4672
:1035900043EC112B45EC104B01F02CFC51EC100BC3
:1035A0003FA3D3E9002302F045F903460C46184631
:1035B000214602F0D9FB0246BB681A60BB681C1D9D
:1035C0007B69184602F0E2F805460E4697ED067A4A
:1035D000D7ED067A27EE277AD7ED076AD7ED077A77
:1035E00066EEA77A77EE277AB0EE670A01F004FC60
:1035F00010EE103A184602F0C9F802460B4643ECAA
:10360000112B46EC105B01F0F5FB51EC100B24A3E1
:10361000D3E9002302F00EF902460B461046194684
:1036200002F0A2FB03462360BB6803F10804BB69F8
:10363000184602F0ABF805460E4697ED057AD7ED31
:10364000057A27EE277AD7ED076AD7ED077A66EE77
:10365000A77A77EE277AB0EE670A01F0CDFB10EE7D
:10366000103A184602F092F802460B4643EC112B32
:1036700046EC105B01F0BEFB51EC100B0AA3D3E942
:10368000002302F0D7F802460B461046194602F016
:103690006BFB0346236000BF2437BD46F0BD00BF6F
:1036A0006666666666A64CC06666666666A64C403A
:1036B00080B489B000AF78600023BB6100237B61D8
:1036C0000023FB6102233B610023FB600223BB60FC
:1036D000484B9B6803F00C03BB61BB69042B07D00C
:1036E000082B09D0002B3FD17B68434A1A603FE08A
:1036F0007B68424A1A603BE03E4B5B6803F4800300
:103700009B0DFB603B4B5B6803F03F03BB60FB68BA
:10371000002B0DD0394ABB68B2FBF3F2354B596828
:1037200047F6C0730B409B0903FB02F3FB610CE0FF
:10373000314ABB68B2FBF3F22E4B596847F6C073AF
:103740000B409B0903FB02F3FB612A4B5B6803F40C
:1037500040331B0C01335B003B61FA693B69B2FBF0
:10376000F3F27B681A6003E07B68234A1A6000BFAB
:10377000204B9B6803F0F003BB61BB691B09BB6175
:103780001F4ABB6913441B78DBB27B617B681A68F4
:103790007B69DA407B685A60164B9B6803F4E05300
:1037A000BB61BB699B0ABB61154ABB6913441B78AB
:1037B000DBB27B617B685A687B69DA407B689A6020
:1037C0000C4B9B6803F46043BB61BB695B0BBB6143
:1037D0000B4ABB6913441B78DBB27B617B685A6878
:1037E0007B69DA407B68DA6000BF2437BD465DF84C
:1037F000047B7047003802400024F40040787D01CB
:103800000000002080B483B000AF78600B46FB70EE
:10381000FB78002B06D00A49094B1A6B7B681343CF
:103820000B6306E00649064B1A6B7B68DB431340CB
:103830000B6300BF0C37BD465DF8047B704700BFCB
:103840000038024080B483B000AF78600B46FB7054
:10385000FB78002B06D00A49094B1A6C7B6813438E
:103860000B6406E00649064B1A6C7B68DB43134089
:103870000B6400BF0C37BD465DF8047B704700BF8A
:103880000038024080B483B000AF78600B46FB7014
:10389000FB78002B06D00A49094B5A6C7B6813430E
:1038A0004B6406E00649064B5A6C7B68DB431340C9
:1038B0004B6400BF0C37BD465DF8047B704700BF0A
:1038C0000038024080B487B000AF786039600023D0
:1038D0007B6100233B610023FB6000237B6176E07A
:1038E00001227B6902FA03F33B613B681A683B697A
:1038F0001340FB60FA683B699A4265D17B681A689D
:103900007B695B00032101FA03F3DB431A407B6808
:103910001A607B681A683B681B7919467B695B00F3
:1039200001FA03F31A437B681A603B681B79012B89
:1039300003D03B681B79022B2ED17B689A687B6988
:103940005B00032101FA03F3DB431A407B689A60B2
:103950007B689A683B685B7919467B695B0001FA72
:1039600003F31A437B689A607B685A687B699BB251
:10397000012101FA03F3DB431A407B685A607B683C
:103980005A683B689B7919467B699BB201FA03F33D
:103990009BB21A437B685A607B68DA687B699BB28A
:1039A0005B00032101FA03F3DB431A407B68DA6012
:1039B0007B68DA683B68DB7919467B695B0001FA52
:1039C00003F31A437B68DA607B6901337B617B69AF
:1039D0000F2B85D900BF1C37BD465DF8047B7047AF
:1039E00080B485B000AF78600B467B8013467B7057
:1039F0000023FB600023BB607A787B8803F0070319
:103A00009B0002FA03F3FB607B88DB089BB218463D
:103A10007B88DB089BB21A467B68083253F8222069
:103A20007B8803F007039B000F2101FA03F3DB43BC
:103A300002EA03017B6800F1080243F822107B8848
:103A4000DB089BB21A467B68083253F82220FB68D9
:103A50001343BB607B88DB089BB21A467B68083245
:103A6000B96843F8221000BF1437BD465DF8047BE7
:103A7000704700BF80B48BB000AFF860B9607A6067
:103A8000FB685B687B62BB685B683B627B685B680A
:103A9000FB61FB681A88BB681B889A4211D1FB68DE
:103AA0005A88BB685B889A420BD1FB681A887B688E
:103AB0001B889A4205D1FB685A887B685B889A42CA
:103AC00002D0FD23FB7573E0FB681B881A46FB6878
:103AD0005B8803FB02F33B613B699B08BB6146E0EB
:103AE000FB691A1DFA617A6A111D796292ED007AFA
:103AF0003A6A111D3962D2ED007A77EE677AC3ED2A
:103B0000007AFB691A1DFA617A6A111D796292EDD9
:103B1000007A3A6A111D3962D2ED007A77EE677A3F
:103B2000C3ED007AFB691A1DFA617A6A111D796288
:103B300092ED007A3A6A111D3962D2ED007A77EE81
:103B4000677AC3ED007AFB691A1DFA617A6A111D62
:103B5000796292ED007A3A6A111D3962D2ED007AEB
:103B600077EE677AC3ED007ABB69013BBB61BB6945
:103B7000002BB5D13B6903F00303BB6113E0FB6984
:103B80001A1DFA617A6A111D796292ED007A3A6A19
:103B9000111D3962D2ED007A77EE677AC3ED007AB3
:103BA000BB69013BBB61BB69002BE8D10023FB75FE
:103BB00097F9173018462C37BD465DF8047B7047DF
:103BC00080B48BB000AF786039607B685B687B62E3
:103BD0003B685B687B617B681B887B827B685B885A
:103BE0003B820023BB837B8A7B833B8A9B08FB83CE
:103BF000BB8B9B007A6913443B622EE07B6A1A1DE3
:103C00007A621A683B6A1A607B8A9B003A6A13449C
:103C10003B627B6A1A1D7A621A683B6A1A607B8A69
:103C20009B003A6A13443B627B6A1A1D7A621A68E7
:103C30003B6A1A607B8A9B003A6A13443B627B6A48
:103C40001A1D7A621A683B6A1A607B8A9B003A6A7C
:103C500013443B62FB8B013BFB83FB8B002BCDD1E1
:103C60003B8A03F00303FB830DE07B6A1A1D7A6233
:103C70001A683B6A1A607B8A9B003A6A13443B626B
:103C8000FB8B013BFB83FB8B002BEED1BB8B01330A
:103C9000BB837B8B013B7B837B8B002BA5D10023DC
:103CA000FB7397F90F3018462C37BD465DF8047B3F
:103CB000704700BF80B48BB000AFF86087ED020A98
:103CC0007960FB685B687B627B685B683B62FB6872
:103CD0001B881A46FB685B8803FB02F3BB61BB6968
:103CE0009B08FB613AE03B6A1A1D3A627A6A111D31
:103CF000796292ED007AD7ED027A67EE277AC3ED0A
:103D0000007A3B6A1A1D3A627A6A111D796292ED55
:103D1000007AD7ED027A67EE277AC3ED007A3B6A24
:103D20001A1D3A627A6A111D796292ED007AD7ED16
:103D3000027A67EE277AC3ED007A3B6A1A1D3A626F
:103D40007A6A111D796292ED007AD7ED027A67EEF8
:103D5000277AC3ED007AFB69013BFB61FB69002B0D
:103D6000C1D1BB6903F00303FB6110E03B6A1A1D7C
:103D70003A627A6A111D796292ED007AD7ED027A81
:103D800067EE277AC3ED007AFB69013BFB61FB69B3
:103D9000002BEBD10023FB7597F9173018462C3711
:103DA000BD465DF8047B704780B58AB000AF78608F
:103DB00039600023FB8400237B840423BB84574B9E
:103DC000FB617B689B88FB84FB8C23F03F03FB84B7
:103DD00007F10C031846FFF76BFC7B69FB61FB697D
:103DE0004F4AA2FB03239B0C7B84FA8C7B8C1343EE
:103DF000FB847B68FA8C9A807B681B889BB223F0DB
:103E000001039AB27B681A800023FB843B681B681D
:103E1000444A934215D83B681B685B00FA69B2FBC1
:103E2000F3F3BB84BB8C032B01D80423BB84FA8C33
:103E3000BB8C1343FB847B8C01339AB27B681A845E
:103E400040E03B68DB884BF6FF72934209D13B6848
:103E50001A6813465B001344FA69B2FBF3F3BB84A0
:103E60000EE03B681A6813469B0013449A00134403
:103E7000FA69B2FBF3F3BB84BB8C43F48043BB848D
:103E8000BB8CC3F30B03002B03D1BB8C43F00103AA
:103E9000BB84BA8CFB8C13439BB26FEA43436FEA3B
:103EA0005343FB847B8C4FF4967202FB03F31E4A50
:103EB00082FB03129211DB17D31A9BB201339AB221
:103EC0007B681A847B68FA8C9A837B681B889BB218
:103ED00043F001039AB27B681A807B681B88FB84DD
:103EE000FB8C23F4816323F00203FB843B689A88F4
:103EF0003B685B8913439AB2FB8C1343FB847B685A
:103F0000FA8C1A803B689A893B681B8913439AB2E2
:103F10007B681A8100BF2837BD4680BD00127A0039
:103F200083DE1B43A0860100D34D621080B483B0B2
:103F300000AF78600B46FB70FB78002B08D07B68E5
:103F40001B889BB243F001039AB27B681A8007E09A
:103F50007B681B889BB223F001039AB27B681A80AE
:103F600000BF0C37BD465DF8047B704780B483B05A
:103F700000AF78600B46FB70FB78002B08D07B68A5
:103F80001B889BB243F480739AB27B681A8007E067
:103F90007B681B889BB223F480739AB27B681A807B
:103FA00000BF0C37BD465DF8047B704780B483B01A
:103FB00000AF78600B46FB70FB78002B08D07B6865
:103FC0001B889BB243F400739AB27B681A8007E0A7
:103FD0007B681B889BB223F400739AB27B681A80BB
:103FE00000BF0C37BD465DF8047B704780B483B0DA
:103FF00000AF78600B46FB701346BB70BB78002B9C
:1040000004D0FB7843F00103FB7003E0FB7823F05E
:104010000103FB70FB789AB27B681A8200BF0C37F1
:10402000BD465DF8047B704780B483B000AF786014
:104030000B46FB70FB78002B08D07B681B889BB27B
:1040400043F480639AB27B681A8007E07B681B8820
:104050009BB223F480639AB27B681A8000BF0C374E
:10406000BD465DF8047B704780B483B000AF7860D4
:104070000B46FB70FB789AB27B681A8200BF0C3744
:10408000BD465DF8047B704780B483B000AF7860B4
:104090007B681B8A9BB2DBB218460C37BD465DF8C5
:1040A000047B704780B487B000AF7860396000232C
:1040B0003B610023FB600023BB600023FB757B6832
:1040C0009B8A9BB2FB607B681B8B9BB2BB60BB680F
:1040D0001B04BB60FA68BB68134323F07F433B615A
:1040E0003A693B681A403B689A4202D10123FB754A
:1040F00001E00023FB75FB7D18461C37BD465DF8CB
:10410000047B704780B487B000AF786039600023CB
:10411000FB7500233B610023FB607B68FB603B6811
:104120001B0F3B613B6823F07F433B603B69002BE7
:1041300003D0FB681433FB6005E03B681B0C3B605D
:10414000FB681833FB60FB681A683B681340002B60
:1041500002D00123FB7501E00023FB75FB7D1846AF
:104160001C37BD465DF8047B704700BF80B584B046
:1041700000AF78607B6804221A807B6804225A8032
:104180007B684FF00002DA677B684FF000029A67A5
:104190007B68A14AC3F8BC210023FB733CE0FB7B96
:1041A0007A682E339B00134404334FF000021A60E8
:1041B000FB7B7A683E339B00134404334FF00002CC
:1041C0001A60FB7B7A6870339B0013444FF0000247
:1041D0001A60FB7B7A6880339B0013444FF0000227
:1041E0001A60FB7B7A6890339B0013444FF0000207
:1041F0001A60FB7B7A68A0339B0013444FF00002E7
:104200001A60FB7B7A68C0339B0013444FF00002B6
:104210001A60FB7B0133FB73FB7B0F2BBFD97B68E1
:104220004FF07E52C3F8C0217B684FF07E52C3F836
:10423000D4217B684FF07E52C3F8E8217B684FF0B1
:104240007E52C3F8FC217B684FF07E52C3F80022F7
:104250007B684FF07E52C3F814227B684FF07E5289
:10426000C3F828227B684FF07E52C3F83C227B685B
:104270006A4AC3F840227B68684AC3F854227B68C4
:10428000664AC3F868227B68644AC3F87C227B686C
:10429000634AC3F880227B68614AC3F894227B6832
:1042A0005F4AC3F8A8227B685D4AC3F8BC227B68DA
:1042B0004FF07E52C3F800237B684FF07E52C3F864
:1042C00014237B684FF07E52C3F828237B684FF09D
:1042D0007E52C3F83C237B6803F108007B68198891
:1042E0007B685A887B68BC33FEF766FE7B6803F107
:1042F00010007B6819887B685A887B68FC33FEF75E
:104300005BFE7B6803F158007B6819887B6880330B
:104310000122FEF751FE7B6803F160007B6819887B
:104320007B6890330122FEF747FE7B6803F118009B
:104330007B6819887B685A887B6803F59E73FEF753
:104340003BFE7B6803F120007B6819887B685A88F4
:104350007B6803F5BE73FEF72FFE7B6803F1280030
:104360007B6819887B685A887B6803F5E073FEF7E1
:1043700023FE7B6803F130007B6819887B685A88CC
:104380007B6803F50073FEF717FE7B6803F13800C6
:104390007B6819887B685A887B6803F51073FEF781
:1043A0000BFE7B6803F140007B6819887B685A88A4
:1043B0007B6803F52073FEF7FFFD7B6803F1500077
:1043C0007B6819887B685A887B6803F54073FEF721
:1043D000F3FD7B6803F168007B6819887B68A03374
:1043E0000122FEF7E9FD7B6803F170007B68B033C2
:1043F00001220321FEF7E0FD7B6803F148007B68A2
:1044000019887B685A887B6803F53073FEF7D4FD02
:1044100000BF1037BD4680BD0000C842BD3786359D
:1044200017B75138B0B5ADF5986D00AF07F114046A
:10443000206007F11000016007F10C010A6007F12C
:10444000080213603B1D83ED000A4FF0000307F2E2
:10445000B4421360002387F8B3344E4B07F2AC42EA
:10446000136007F5B4731846FFF780FE07F59473E1
:1044700007F5B07001220421FEF79EFD07F58C734D
:1044800007F5AC7001220421FEF796FD07F1D80371
:1044900007F5A87004220421FEF78EFD07F19803AA
:1044A00007F5A47004220421FEF786FD07F15803E6
:1044B00007F5A07004220421FEF77EFD07F1180322
:1044C00007F59C7004220421FEF776FD002387F88F
:1044D000BF3433E097F8BF3497F8BF24920007F158
:1044E000140109680A44126807F5B47128339B0067
:1044F0000B441A6097F8BF3497F8BF24920007F175
:10450000100109680A44126807F5B47120339B0052
:104510000B441A6097F8BF349B00D7F8D02413449B
:1045200097F8BF24920007F1100109680A44126845
:104530001A6097F8BF34013387F8BF3497F8BF3457
:10454000032BC7D9002387F8BE3415E097F8BE3493
:1045500097F8BE24920007F10C0109680A4412681A
:1045600007F5B4714E339B000B4404331A6097F87F
:10457000BE34013387F8BE3497F8BE340F2BE5D92B
:1045800007F5B4733A1D12685A60002387F8BD34EA
:1045900017E000BF0000C84297F8BD3497F8BD246B
:1045A000920007F1080109680A44126807F5B4711E
:1045B0002C339B000B441A6097F8BD34013387F805
:1045C000BD3497F8BD34022BE6D907F5B4734FF02C
:1045D0000002C3F8C02207F5B473D3F8B82007F57A
:1045E000B473C3F8C42207F5B473D3ED2D7AF1EE9A
:1045F000677A07F5B473C3EDB27A07F5B473D3F8ED
:10460000B02007F5B473C3F8CC2207F5B473D3ED2B
:104610002E7AF1EE677A07F5B473C3EDB47A07F535
:10462000B4734FF00002C3F8D42207F5B473D3F883
:10463000B02007F5B473C3F8D82207F5B473D3F8E4
:10464000B42007F5B473C3F8DC2207F5B473D3F8CC
:10465000B42007F5B473C3F8E02207F5B473D3EDC3
:104660002C7AF1EE677A07F5B473C3EDB97A07F5E2
:10467000B4734FF00002C3F8E82207F5B473D3F81F
:10468000B82007F5B473C3F8EC2207F5B473D3ED83
:104690002C7AF1EE677A07F5B473C3EDBC7A07F5AF
:1046A000B473D3ED2D7AF1EE677A07F5B473C3EDE9
:1046B000BD7A07F5B473D3ED2E7AF1EE677A07F57C
:1046C000B473C3EDBE7A07F5B4734FF00002C3F8BC
:1046D000FC2207F5B47303F17C0107F5B473B03322
:1046E0000322184600F0C6F907F5B4735B68184654
:1046F00001F04CF84FF000024FF07F5301F09AF8B0
:1047000003460C4625461C4607F5B4735B681846FD
:1047100001F03CF802460B462046294601F08AF893
:1047200003460C4625461C4607F5B473DB6F184656
:1047300001F02CF802460B462046294601F07AF893
:1047400003460C4625461C4607F5B473DB6F184636
:1047500001F01CF802460B462046294601F06AF893
:1047600003460C461846214601F0FEFA034607F2BE
:10477000B442136007F5A87207F5B47350331146BD
:1047800007F2B44292ED000A1846FFF793FA07F5D4
:10479000B473D3ED017AB6EE007A67EE877A07F24A
:1047A000B443C3ED007A07F5A47207F5B473483338
:1047B000114607F2B44292ED000A1846FFF77AFA62
:1047C00007F5A07207F5A87107F5A4731846FFF75F
:1047D00051F907F5B47303F1080207F5A07107F565
:1047E000B47350331846FBF797FE07F5B47303F123
:1047F000600207F5B47303F1580107F5B473083389
:10480000184600F09BF907F5A87207F5B47303F199
:10481000180107F5B4730833184600F08FF907F54F
:10482000A47207F5B473083311461846FFF7C8F9A8
:1048300007F5A07207F5A47107F5A873184600F0F4
:104840007DF907F5B47303F1200207F5B47303F1A2
:10485000380107F5A0731846FBF75EFE07F5A8724E
:1048600007F5B47303F1300107F5B473203318462C
:1048700000F064F907F5A47207F5B47303F12001A1
:1048800007F5B4732833184600F058F907F5A072FD
:1048900007F5B47303F1300107F5A473184600F06F
:1048A0004DF907F5A47207F5B47303F1400107F55C
:1048B000A0731846FBF730FE07F59C7207F5A4734A
:1048C0001146184600F012F907F5A07207F59C731F
:1048D00011461846FBF758FC07F5B47303F11002B4
:1048E00007F5A07107F5A873184600F027F907F53A
:1048F000B07207F5B47303F1600107F5B4732833A0
:10490000184600F01BF907F5AC7207F5B07107F512
:10491000B47368331846FFF7ADF807F5B07207F5C2
:10492000AC7107F5B4731033184600F007F907F5BA
:10493000B47303F1580207F5B07107F5B47360332F
:104940001846FBF7E9FD07F5B47303F1780107F5A5
:10495000B47380330422184600F08CF807F5B47362
:10496000D3ED1E7AF5EEC07AF1EE10FA14DD07F5FC
:10497000B473D3ED1E7AB7EE007AC7EE276A07F557
:10498000B47303F1580207F5B47358331146B0EE0F
:10499000660A1846FFF78EF907F5A87207F5B47393
:1049A00003F1500107F5B4732033184600F0C6F840
:1049B00007F5A47207F5B47303F1100107F5B4739A
:1049C0002033184600F0BAF807F5A07207F5B47363
:1049D00003F1280107F5A473184600F0AFF807F5B6
:1049E000B47303F1180207F5A07107F5A873184610
:1049F000FFF740F8002387F8BC3413E097F8BC3485
:104A00009B00D7F8D024134497F8BC2407F5B47161
:104A1000203292000A4412681A6097F8BC340133BD
:104A200087F8BC3497F8BC34032BE7D9002387F808
:104A3000BB3415E097F8BB349B0007F10C021268F9
:104A4000134497F8BB2407F5B4714E3292000A4420
:104A5000043212681A6097F8BB34013387F8BB340C
:104A600097F8BB340F2BE5D900BF07F59867BD4613
:104A7000B0BD00BF80B586B000AFF860B960134626
:104A8000FB71BB684FF000021A600023FB7518E051
:104A9000BB6893ED007AFB7D9B00FA681344D3ED6D
:104AA000006AFB7D9B00FA681344D3ED007A66EE42
:104AB000A77A77EE277ABB68C3ED007AFB7D0133D6
:104AC000FB75FA7DFB799A42E2D3BB68D3ED007A9D
:104AD000B0EE670A00F090F9F0EE407ABB68C3EDE3
:104AE000007A00BF1837BD4680BD00BF80B485B0D6
:104AF00000AF786039600023FB730EE03B685A68B2
:104B0000FB7B9B0013447A685168FA7B92000A444D
:104B100012681A60FB7B0133FB73FA7B7B685B884E
:104B200019467B681B8803FB01F39A42E6DB00BF52
:104B30001437BD465DF8047B704700BF80B491B068
:104B400000AFF860B9607A60FB685B68FB63BB68C4
:104B50005B68BB63FB685B687B637B685B68FB616E
:104B6000FB681B887B83BB685B883B83FB685B8837
:104B7000FB8200233B857B8BBB843B8D9B00FA69CA
:104B800013443B633B8B7B85BB685B68BB63002343
:104B9000FB844FF00003FB627B6BFB63FB8A9B088B
:104BA0007B8456E0FB6B1A1DFA6393ED007ABB6BB6
:104BB000D3ED007A67EE277A97ED0B7A77EE277AB6
:104BC000C7ED0B7A3B8B9B00BA6B1344BB63FB6B4B
:104BD0001A1DFA6393ED007ABB6BD3ED007A67EE92
:104BE000277A97ED0B7A77EE277AC7ED0B7A3B8B16
:104BF0009B00BA6B1344BB63FB6B1A1DFA6393ED06
:104C0000007ABB6BD3ED007A67EE277A97ED0B7ACB
:104C100077EE277AC7ED0B7A3B8B9B00BA6B134478
:104C2000BB63FB6B1A1DFA6393ED007ABB6BD3ED8C
:104C3000007A67EE277A97ED0B7A77EE277AC7ED41
:104C40000B7A3B8B9B00BA6B1344BB637B8C013BA1
:104C50007B847B8C002BA5D1FB8A03F003037B8430
:104C600017E0FB6B1A1DFA6393ED007ABB6BD3ED73
:104C7000007A67EE277A97ED0B7A77EE277AC7ED01
:104C80000B7A3B8B9B00BA6B1344BB637B8C013B61
:104C90007B847B8C002BE4D13B6B1A1D3A63FA6A50
:104CA0001A60FB8C0133FB84BB685A68FB8C9B0049
:104CB0001344BB637B8D013B7B857B8D002B7FF495
:104CC00068AF3A8D3B8B13443B85FB8A9B007A6B24
:104CD00013447B63BB8C013BBB84BB8C002B7FF4F8
:104CE0004CAF00237B7597F9153018464437BD4605
:104CF0005DF8047B704700BF80B588B000AF4FF40B
:104D0000E133FB6101212020FEF7BCFD01210420DD
:104D1000FEF778FDC0237B6102233B7602237B767E
:104D20000023BB760123FB7607F1140319461348D1
:104D3000FEF7C8FD082206211048FEF751FE0822A2
:104D400007210E48FEF74CFEFB697B6000233B8188
:104D500000237B810023BB8100233B820C23FB814A
:104D60003B1D19460648FDF7E7FF01210448FEF701
:104D70009DF800BF2037BD4680BD00BF000802403F
:104D80000014014080B586B000AF78600B46FB7020
:104D90000023FB7524E0FB7D9B007A6813443B6194
:104DA0000423FB730023BB7513E000BF8021104870
:104DB000FEF7ACF80346002BF8D0BB7D3A691344EC
:104DC0001B789BB219460A48FEF790F8BB7D013369
:104DD000BB75BA7DFB7B9A42E7D3FB7D0133FB7544
:104DE000FA7DFB789A42D6D300BF1837BD4680BD06
:104DF0000014014000F058B810B52DED028B8AB0B8
:104E0000B0EE408A00F046F9244B93F90040631C51
:104E100009D0B4EE488AF1EE10FA04D6B5EEC08A95
:104E2000F1EE10FA03D40AB0BDEC028B10BD0123E1
:104E30001B4A009318EE100A00230192089300F019
:104E4000A5FC0022CDE90401CDE902010023BCB19B
:104E50001046194600F018FE022CCDE9060111D1CA
:104E600000F0D2FF21230360089B8BB9DDE9060126
:104E700000F07AFF00EE100A0AB0BDEC028B10BD04
:104E8000CDE90623684600F01BFB0028ECD1E7E7DC
:104E900000F0BAFF089B0360E8E700BF2400002091
:104EA000945E00080000000051EC110B43422DE914
:104EB000F047034321F00048754F48EAD373BB42E3
:104EC00055EC104B49D86342234325F0004A4AEA87
:104ED000D373BB42A94640D801F1404303F5801388
:104EE00003438E4650D08E1706F0020654EA0A039A
:104EF00046EAD57639D050EA08033ED0B84555D0B9
:104F0000BA453AD0C8EB0A084FEA2858B8F13C0F26
:104F100040DC002970DB02460B462046294600F0A3
:104F2000B3FD41EC100B00F0C3FA00F005F951ECB1
:104F3000100B012E5AD0022E48D0002E42D03EA394
:104F4000D3E9002300F0C2FA3DA3D3E9002300F027
:104F5000BDFA41EC100BBDE8F08722462B4600F06D
:104F6000B7FA41EC100BBDE8F087022E16D0032EE5
:104F70000ED19FED350BBDE8F087B9F1000F11DBC5
:104F80009FED330BBDE8F087BDE8F04700F0D4B8E3
:104F9000BDE8F0872EA1D1E90001CAE79FED280BFB
:104FA000BDE8F0879FED2C0BBDE8F087C24529D006
:104FB000022EF3D0032EDCD0012E2DD09FED280B36
:104FC000BDE8F08741EC100BBDE8F0871AA3D3E9E8
:104FD000002300F07BFA02460B4619A1D1E900013B
:104FE00000F074FA41EC100BBDE8F08701F10041CC
:104FF00041EC100BBDE8F08718F13C0F8BDA002074
:10500000002196E7022E13D0032E0DD0012E07D0DB
:105010009FED150BBDE8F0879FED150BBDE8F08700
:105020009FED150BBDE8F0879FED150BBDE8F087F0
:105030009FED150BBDE8F087075C143326A6A13C55
:10504000182D4454FB210940182D4454FB2109C05C
:10505000182D4454FB21F93F182D4454FB21F9BF6E
:105060000000000000000000182D4454FB21E93F1F
:105070000000000000000080182D4454FB21E9BF0F
:10508000D221337F7CD902C0D221337F7CD9024028
:105090000000F07F10EE103A23F00042B2F1FF4F13
:1050A00070B430D26AB3002B3DDBB2F5000F4FEA8B
:1050B000E3502CD3A0F17F02C3F31603D10743F4CE
:1050C000000348BF5B00002456105B0025461921F1
:1050D0004FF08072A818984202DC1B1A85181444FD
:1050E00001394FEA43034FEA5202F3D113B104F0FE
:1050F00001031C44641004F17C5404EBC65300EE1D
:10510000103A70BC7047A0EE000A70BC704713F4F0
:10511000000201D00CE00A465B001C0202F1010112
:10512000F9D5801AC6E770EE407A87EEA70AE8E75D
:105130004FF0FF32F5E700BF2DE9F84F55EC104B6B
:10514000D14B25F000469E42AB4610DDCF4B9E4230
:1051500000F3B28000F0AD80BBF1000F40F3FD80A2
:10516000ADA5D5E9004545EC104BBDE8F88FC84B1F
:105170009E4200F3C080A3F1DE739E4240F3A880FC
:105180004FF0FF3A22462B462046294600F052FBBC
:1051900002460B468046894600F04CFBA0A3D3E9AB
:1051A000002306460F4600F045FB9FA3D3E90023EA
:1051B00000F08EF932463B4600F03CFB9CA3D3E95D
:1051C000002300F085F932463B4600F033FB9AA3FA
:1051D000D3E9002300F07CF932463B4600F02AFB7D
:1051E00097A3D3E9002300F073F932463B4600F061
:1051F00021FB95A3D3E9002300F06AF942464B4610
:1052000000F018FB92A3D3E900238046894630467C
:10521000394600F00FFB90A3D3E9002300F056F9C4
:1052200032463B4600F006FB8DA3D3E9002300F095
:105230004DF932463B4600F0FDFA8BA3D3E900233B
:1052400000F044F932463B4600F0F4FA88A3D3E973
:10525000002300F03BF932463B4600F0EBFABAF18E
:10526000FF3F02460B467CD04046494600F030F9ED
:1052700022462B4600F0DEFA864E874B4FEACA0ADA
:1052800056449A44DAE9002300F020F922462B46DE
:1052900000F01CF902460B46D6E9000100F016F9B1
:1052A000BBF1000F52DB04460D4645EC104BBDE848
:1052B000F88F002C3FF450AF22462B46204629465B
:1052C00000F006F904460D4645EC104BBDE8F88F9A
:1052D00069A3D3E9002310EE100A294600F0F8F87C
:1052E00000226E4B00F036FD00283FF449AF45EC3C
:1052F000104BBDE8F88F00F0DBF8694B9E4255EC8F
:10530000104B3FDCA3F550239E4268DC10EE102AC0
:1053100010EE100A2B46294600F0DAF800225F4B07
:1053200000F0D4F8002206460F464FF08043204696
:10533000294600F0CDF802460B463046394600F0CB
:10534000A3FB4FF0000A04460D461BE7044601F19B
:10535000004545EC104BBDE8F88F49A5D5E900455F
:10536000B2E74046494600F0B3F822462B4600F02B
:1053700061FA02460B462046294600F0A7F804468B
:105380000D46A1E7474B9E421DDC10EE100A00229D
:10539000454B294600F09AF8002206460F46424B3C
:1053A0002046294600F046FA00223C4B00F090F8D7
:1053B00002460B463046394600F066FB4FF0020AC3
:1053C00004460D46DEE62B4610EE102A0020374933
:1053D00000F05AFB4FF0030A04460D46D2E610EEE9
:1053E000100A00222D4B294600F070F800220646D4
:1053F0000F462A4B2046294600F06AF802460B4623
:105400003046394600F040FB4FF0010A04460D4695
:10541000B8E600BFAFF30080182D4454FB21F93FDC
:1054200011DA22E33AAD903FEB0D76244B7BA93F96
:10543000513DD0A0660DB13F6E204CC5CD45B73F64
:10544000FF8300922449C23F0D5555555555D53F10
:105450002F6C6A2C44B4A2BF9AFDDE522DDEAD3F04
:105460006D9A74AFF2B0B33F711623FEC671BC3FA4
:10547000C4EB98999999C93F9C7500883CE4377EA4
:10548000182D4454FB21F9BFFFFF0F440000F07FAB
:10549000FFFFDB3FC05E0008A05E00080000F03F99
:1054A000FFFFF23FFF7F03400000F83F0000F0BF26
:1054B00053EC102B23F0004343EC102B704700BF3C
:1054C0000020704781F0004102E000BF83F00043FC
:1054D00030B54FEA41044FEA430594EA050F08BF8F
:1054E00090EA020F1FBF54EA000C55EA020C7FEA53
:1054F000645C7FEA655C00F0E2804FEA5454D4EBD0
:105500005555B8BF6D420CDD2C4480EA020281EA99
:10551000030382EA000083EA010180EA020281EAD1
:105520000303362D88BF30BD11F0004F4FEA013123
:105530004FF4801C4CEA113102D0404261EB410132
:1055400013F0004F4FEA03334CEA133302D05242B8
:1055500063EB430394EA050F00F0A780A4F1010474
:10556000D5F1200E0DDB02FA0EFC22FA05F28018AE
:1055700041F1000103FA0EF2801843FA05F3594194
:105580000EE0A5F120050EF1200E012A03FA0EFC13
:1055900028BF4CF0020C43FA05F3C01851EBE3713D
:1055A00001F0004507D54FF0000EDCF1000C7EEB5A
:1055B00000006EEB0101B1F5801F1BD3B1F5001F98
:1055C0000CD349085FEA30004FEA3C0C04F10104B7
:1055D0004FEA445212F5800F80F09A80BCF1004FE0
:1055E00008BF5FEA500C50F1000041EB045141EA62
:1055F000050130BD5FEA4C0C404141EB010111F463
:10560000801FA4F10104E9D191F0000F04BF01460D
:105610000020B1FA81F308BF2033A3F10B03B3F1EB
:1056200020020CDA0C3208DD02F1140CC2F10C027B
:1056300001FA0CF021FA02F10CE002F11402D8BFD9
:10564000C2F1200C01FA02F120FA0CFCDCBF41EAA5
:105650000C019040E41AA2BF01EB0451294330BD74
:105660006FEA04041F3C1CDA0C340EDC04F1140451
:10567000C4F1200220FA04F001FA02F340EA030028
:1056800021FA04F345EA030130BDC4F10C04C4F16E
:10569000200220FA02F001FA04F340EA030029464E
:1056A00030BD21FA04F0294630BD94F0000F83F498
:1056B000801306BF81F480110134013D4EE77FEA7B
:1056C000645C18BF7FEA655C29D094EA050F08BFC7
:1056D00090EA020F05D054EA000C04BF19461046A8
:1056E00030BD91EA030F1EBF0021002030BD5FEAEC
:1056F000545C05D14000494128BF41F0004130BD14
:1057000014F580043CBF01F5801130BD01F0004567
:1057100045F0FE4141F470014FF0000030BD7FEADA
:10572000645C1ABF194610467FEA655C1CBF0B46D5
:10573000024650EA013406BF52EA033591EA030FEC
:1057400041F4002130BD00BF90F0000F04BF0021E4
:10575000704730B54FF4806404F132044FF0000517
:105760004FF0000150E700BF90F0000F04BF002190
:10577000704730B54FF4806404F1320410F00045F6
:1057800048BF40424FF000013EE700BF42004FEAF1
:10579000E2014FEA31014FEA02701FBF12F07F436E
:1057A00093F07F4F81F06051704792F0000F14BF6B
:1057B00093F07F4F704730B54FF4607401F00045AF
:1057C00021F0004120E700BF50EA010208BF704706
:1057D00030B54FF000050AE050EA010208BF7047FB
:1057E00030B511F0004502D5404261EB41014FF464
:1057F000806404F132045FEA915C3FF4DCAE4FF068
:1058000003025FEADC0C18BF03325FEADC0C18BF4E
:10581000033202EBDC02C2F1200300FA03FC20FA9F
:1058200002F001FA03FE40EA0E0021FA02F11444EC
:10583000C1E600BF70B54FF0FF0C4CF4E06C1CEA01
:1058400011541DBF1CEA135594EA0C0F95EA0C0F76
:1058500000F0DEF82C4481EA030621EA4C5123EAE9
:105860004C5350EA013518BF52EA033541F4801118
:1058700043F4801338D0A0FB02CE4FF00005E1FBCB
:1058800002E506F00042E0FB03E54FF00006E1FB15
:1058900003569CF0000F18BF4EF0010EA4F1FF0458
:1058A000B6F5007F64F5407404D25FEA4E0E6D4198
:1058B00046EB060642EAC62141EA55514FEAC520A9
:1058C00040EA5E504FEACE2EB4F1FD0C88BFBCF525
:1058D000E06F1ED8BEF1004F08BF5FEA500E50F1D6
:1058E000000041EB045170BD06F0004646EA01019C
:1058F00040EA020081EA0301B4EB5C04C2BFD4EBCE
:105900000C0541EA045170BD41F480114FF0000EC6
:10591000013C00F3AB8014F1360FDEBF002001F034
:10592000004170BDC4F10004203C35DA0C341BDCAE
:1059300004F11404C4F1200500FA05F320FA04F080
:1059400001FA05F240EA020001F0004221F00041B4
:1059500010EBD37021FA04F642EB06015EEA430E27
:1059600008BF20EAD37070BDC4F10C04C4F1200557
:1059700000FA04F320FA05F001FA04F240EA02000A
:1059800001F0004110EBD37041F100015EEA430EDB
:1059900008BF20EAD37070BDC4F1200500FA05F2FB
:1059A0004EEA020E20FA04F301FA05F243EA02037A
:1059B00021FA04F001F0004121FA04F220EA020089
:1059C00000EBD3705EEA430E08BF20EAD37070BDCF
:1059D00094F0000F0FD101F00046400041EB0101AF
:1059E00011F4801F08BF013CF7D041EA060195F091
:1059F000000F18BF704703F00046520043EB03034B
:105A000013F4801F08BF013DF7D043EA0603704737
:105A100094EA0C0F0CEA135518BF95EA0C0F0CD042
:105A200050EA410618BF52EA4306D1D181EA030188
:105A300001F000414FF0000070BD50EA410606BF82
:105A40001046194652EA430619D094EA0C0F02D1C7
:105A500050EA013613D195EA0C0F05D152EA03360C
:105A60001CBF104619460AD181EA030101F000412A
:105A700041F0FE4141F470014FF0000070BD41F073
:105A8000FE4141F4780170BD70B54FF0FF0C4CF44D
:105A9000E06C1CEA11541DBF1CEA135594EA0C0F6C
:105AA00095EA0C0F00F0A7F8A4EB050481EA030EB9
:105AB00052EA03354FEA013100F088804FEA0333A0
:105AC0004FF0805545EA131343EA12634FEA02226E
:105AD00045EA111545EA10654FEA00260EF000412F
